{"abi":[{"type":"constructor","inputs":[{"name":"initialOwner","type":"address","internalType":"address"}],"stateMutability":"nonpayable"},{"type":"function","name":"agentCounter","inputs":[],"outputs":[{"name":"","type":"uint256","internalType":"uint256"}],"stateMutability":"view"},{"type":"function","name":"checkOrderEvaluation","inputs":[{"name":"orderId","type":"uint256","internalType":"uint256"},{"name":"dispute","type":"bool","internalType":"bool"}],"outputs":[],"stateMutability":"nonpayable"},{"type":"function","name":"checkReview","inputs":[{"name":"orderId","type":"uint256","internalType":"uint256"},{"name":"dispute","type":"bool","internalType":"bool"}],"outputs":[],"stateMutability":"nonpayable"},{"type":"function","name":"createAgent","inputs":[{"name":"name","type":"string","internalType":"string"},{"name":"bio","type":"string","internalType":"string"},{"name":"imageURI","type":"string","internalType":"string"},{"name":"contact","type":"string","internalType":"string"}],"outputs":[],"stateMutability":"nonpayable"},{"type":"function","name":"createOrder","inputs":[{"name":"orderId","type":"uint256","internalType":"uint256"},{"name":"inputURI","type":"string","internalType":"string"}],"outputs":[],"stateMutability":"payable"},{"type":"function","name":"createService","inputs":[{"name":"agentId","type":"uint256","internalType":"uint256"},{"name":"description","type":"string","internalType":"string"},{"name":"outputURI","type":"string","internalType":"string"},{"name":"inputSpecsURI","type":"string","internalType":"string"},{"name":"outputSpecsURI","type":"string","internalType":"string"},{"name":"price","type":"uint256","internalType":"uint256"}],"outputs":[],"stateMutability":"nonpayable"},{"type":"function","name":"deleteAgent","inputs":[{"name":"agentId","type":"uint256","internalType":"uint256"}],"outputs":[],"stateMutability":"nonpayable"},{"type":"function","name":"deleteService","inputs":[{"name":"serviceId","type":"uint256","internalType":"uint256"}],"outputs":[],"stateMutability":"nonpayable"},{"type":"function","name":"deliverOrder","inputs":[{"name":"orderId","type":"uint256","internalType":"uint256"},{"name":"outputURI","type":"string","internalType":"string"}],"outputs":[],"stateMutability":"nonpayable"},{"type":"function","name":"disputeOrderEvaluationFee","inputs":[],"outputs":[{"name":"","type":"uint256","internalType":"uint256"}],"stateMutability":"view"},{"type":"function","name":"disputeReviewFee","inputs":[],"outputs":[{"name":"","type":"uint256","internalType":"uint256"}],"stateMutability":"view"},{"type":"function","name":"evaluateOrder","inputs":[{"name":"orderId","type":"uint256","internalType":"uint256"},{"name":"completed","type":"bool","internalType":"bool"}],"outputs":[],"stateMutability":"nonpayable"},{"type":"function","name":"evaluateOrderRequest","inputs":[{"name":"orderId","type":"uint256","internalType":"uint256"},{"name":"accept","type":"bool","internalType":"bool"}],"outputs":[],"stateMutability":"payable"},{"type":"function","name":"getAgentServices","inputs":[{"name":"agentId","type":"uint256","internalType":"uint256"}],"outputs":[{"name":"","type":"uint256[]","internalType":"uint256[]"}],"stateMutability":"view"},{"type":"function","name":"getAgentsByOwner","inputs":[{"name":"owner","type":"address","internalType":"address"}],"outputs":[{"name":"","type":"uint256[]","internalType":"uint256[]"}],"stateMutability":"view"},{"type":"function","name":"idToAgent","inputs":[{"name":"","type":"uint256","internalType":"uint256"}],"outputs":[{"name":"id","type":"uint256","internalType":"uint256"},{"name":"name","type":"string","internalType":"string"},{"name":"bio","type":"string","internalType":"string"},{"name":"imageURI","type":"string","internalType":"string"},{"name":"contact","type":"string","internalType":"string"},{"name":"owner","type":"address","internalType":"address"}],"stateMutability":"view"},{"type":"function","name":"idToOrder","inputs":[{"name":"","type":"uint256","internalType":"uint256"}],"outputs":[{"name":"id","type":"uint256","internalType":"uint256"},{"name":"serviceId","type":"uint256","internalType":"uint256"},{"name":"buyer","type":"address","internalType":"address"},{"name":"inputURI","type":"string","internalType":"string"},{"name":"outputURI","type":"string","internalType":"string"},{"name":"price","type":"uint256","internalType":"uint256"},{"name":"reviewDeposit","type":"uint256","internalType":"uint256"},{"name":"status","type":"uint8","internalType":"enum Orders.Status"},{"name":"reviewParamsId","type":"uint256","internalType":"uint256"},{"name":"reviewId","type":"uint256","internalType":"uint256"}],"stateMutability":"view"},{"type":"function","name":"idToReview","inputs":[{"name":"","type":"uint256","internalType":"uint256"}],"outputs":[{"name":"id","type":"uint256","internalType":"uint256"},{"name":"ReviewParamsId","type":"uint256","internalType":"uint256"}],"stateMutability":"view"},{"type":"function","name":"idToReviewParams","inputs":[{"name":"","type":"uint256","internalType":"uint256"}],"outputs":[{"name":"id","type":"uint256","internalType":"uint256"}],"stateMutability":"view"},{"type":"function","name":"idToService","inputs":[{"name":"","type":"uint256","internalType":"uint256"}],"outputs":[{"name":"description","type":"string","internalType":"string"},{"name":"outputURI","type":"string","internalType":"string"},{"name":"inputSpecsURI","type":"string","internalType":"string"},{"name":"outputSpecsURI","type":"string","internalType":"string"},{"name":"price","type":"uint256","internalType":"uint256"},{"name":"completedServices","type":"uint256","internalType":"uint256"},{"name":"failedServices","type":"uint256","internalType":"uint256"},{"name":"totReviews","type":"uint256","internalType":"uint256"},{"name":"reputation","type":"uint256","internalType":"uint256"},{"name":"agentId","type":"uint256","internalType":"uint256"}],"stateMutability":"view"},{"type":"function","name":"orderCounter","inputs":[],"outputs":[{"name":"","type":"uint256","internalType":"uint256"}],"stateMutability":"view"},{"type":"function","name":"owner","inputs":[],"outputs":[{"name":"","type":"address","internalType":"address"}],"stateMutability":"view"},{"type":"function","name":"ownerAgentCounter","inputs":[{"name":"","type":"address","internalType":"address"}],"outputs":[{"name":"","type":"uint256","internalType":"uint256"}],"stateMutability":"view"},{"type":"function","name":"platformFee","inputs":[],"outputs":[{"name":"","type":"uint256","internalType":"uint256"}],"stateMutability":"view"},{"type":"function","name":"renounceOwnership","inputs":[],"outputs":[],"stateMutability":"nonpayable"},{"type":"function","name":"requestOrder","inputs":[{"name":"serviceId","type":"uint256","internalType":"uint256"},{"name":"objQuestions","type":"string[]","internalType":"string[]"},{"name":"subjQuestions","type":"string[]","internalType":"string[]"},{"name":"objWeights","type":"uint8[]","internalType":"uint8[]"},{"name":"subjWeights","type":"uint8[]","internalType":"uint8[]"}],"outputs":[],"stateMutability":"nonpayable"},{"type":"function","name":"reviewDepositAmount","inputs":[],"outputs":[{"name":"","type":"uint256","internalType":"uint256"}],"stateMutability":"view"},{"type":"function","name":"reviewOrder","inputs":[{"name":"orderId","type":"uint256","internalType":"uint256"},{"name":"review","type":"tuple","internalType":"struct Orders.Review","components":[{"name":"id","type":"uint256","internalType":"uint256"},{"name":"ReviewParamsId","type":"uint256","internalType":"uint256"},{"name":"objAnswers","type":"uint8[]","internalType":"uint8[]"},{"name":"subjAnswers","type":"uint8[]","internalType":"uint8[]"}]}],"outputs":[],"stateMutability":"nonpayable"},{"type":"function","name":"reviewParamsCounter","inputs":[],"outputs":[{"name":"","type":"uint256","internalType":"uint256"}],"stateMutability":"view"},{"type":"function","name":"reviewsCounter","inputs":[],"outputs":[{"name":"","type":"uint256","internalType":"uint256"}],"stateMutability":"view"},{"type":"function","name":"serviceCounter","inputs":[],"outputs":[{"name":"","type":"uint256","internalType":"uint256"}],"stateMutability":"view"},{"type":"function","name":"setReviewDeposit","inputs":[{"name":"newReviewDepositAmount","type":"uint256","internalType":"uint256"}],"outputs":[],"stateMutability":"nonpayable"},{"type":"function","name":"setVerifier","inputs":[{"name":"newVerifier","type":"address","internalType":"address"}],"outputs":[],"stateMutability":"nonpayable"},{"type":"function","name":"solveOrderEvaluationDispute","inputs":[{"name":"orderId","type":"uint256","internalType":"uint256"},{"name":"completed","type":"bool","internalType":"bool"}],"outputs":[],"stateMutability":"nonpayable"},{"type":"function","name":"solveReviewDispute","inputs":[{"name":"orderId","type":"uint256","internalType":"uint256"},{"name":"buyerWins","type":"bool","internalType":"bool"},{"name":"review","type":"tuple","internalType":"struct Orders.Review","components":[{"name":"id","type":"uint256","internalType":"uint256"},{"name":"ReviewParamsId","type":"uint256","internalType":"uint256"},{"name":"objAnswers","type":"uint8[]","internalType":"uint8[]"},{"name":"subjAnswers","type":"uint8[]","internalType":"uint8[]"}]}],"outputs":[],"stateMutability":"nonpayable"},{"type":"function","name":"transferAgent","inputs":[{"name":"newOwner","type":"address","internalType":"address"},{"name":"agentId","type":"uint256","internalType":"uint256"}],"outputs":[],"stateMutability":"nonpayable"},{"type":"function","name":"transferOwnership","inputs":[{"name":"newOwner","type":"address","internalType":"address"}],"outputs":[],"stateMutability":"nonpayable"},{"type":"function","name":"verifier","inputs":[],"outputs":[{"name":"","type":"address","internalType":"address"}],"stateMutability":"view"},{"type":"event","name":"AgentCreated","inputs":[{"name":"agentId","type":"uint256","indexed":true,"internalType":"uint256"},{"name":"owner","type":"address","indexed":true,"internalType":"address"}],"anonymous":false},{"type":"event","name":"AgentDeleted","inputs":[{"name":"agentId","type":"uint256","indexed":true,"internalType":"uint256"},{"name":"owner","type":"address","indexed":true,"internalType":"address"}],"anonymous":false},{"type":"event","name":"AgentTransferred","inputs":[{"name":"agentId","type":"uint256","indexed":true,"internalType":"uint256"},{"name":"previousOwner","type":"address","indexed":true,"internalType":"address"},{"name":"newOwner","type":"address","indexed":true,"internalType":"address"}],"anonymous":false},{"type":"event","name":"OrderCreated","inputs":[{"name":"orderId","type":"uint256","indexed":true,"internalType":"uint256"}],"anonymous":false},{"type":"event","name":"OrderDelivered","inputs":[{"name":"orderId","type":"uint256","indexed":true,"internalType":"uint256"}],"anonymous":false},{"type":"event","name":"OrderEvaluated","inputs":[{"name":"orderId","type":"uint256","indexed":true,"internalType":"uint256"},{"name":"completed","type":"bool","indexed":false,"internalType":"bool"}],"anonymous":false},{"type":"event","name":"OrderEvaluationChecked","inputs":[{"name":"orderId","type":"uint256","indexed":true,"internalType":"uint256"}],"anonymous":false},{"type":"event","name":"OrderEvaluationDisputeResolved","inputs":[{"name":"orderId","type":"uint256","indexed":true,"internalType":"uint256"},{"name":"completed","type":"bool","indexed":false,"internalType":"bool"}],"anonymous":false},{"type":"event","name":"OrderRequestAccepted","inputs":[{"name":"orderId","type":"uint256","indexed":true,"internalType":"uint256"}],"anonymous":false},{"type":"event","name":"OrderRequestRejected","inputs":[{"name":"orderId","type":"uint256","indexed":true,"internalType":"uint256"}],"anonymous":false},{"type":"event","name":"OrderRequested","inputs":[{"name":"orderId","type":"uint256","indexed":true,"internalType":"uint256"},{"name":"buyer","type":"address","indexed":true,"internalType":"address"},{"name":"serviceId","type":"uint256","indexed":true,"internalType":"uint256"}],"anonymous":false},{"type":"event","name":"OrderReviewed","inputs":[{"name":"orderId","type":"uint256","indexed":true,"internalType":"uint256"},{"name":"score","type":"uint8","indexed":false,"internalType":"uint8"}],"anonymous":false},{"type":"event","name":"OwnershipTransferred","inputs":[{"name":"previousOwner","type":"address","indexed":true,"internalType":"address"},{"name":"newOwner","type":"address","indexed":true,"internalType":"address"}],"anonymous":false},{"type":"event","name":"ReviewDepositAmountChanged","inputs":[{"name":"previousReviewDepositAmount","type":"uint256","indexed":true,"internalType":"uint256"},{"name":"newReviewDepositAmount","type":"uint256","indexed":true,"internalType":"uint256"}],"anonymous":false},{"type":"event","name":"ReviewDisputeResolved","inputs":[{"name":"orderId","type":"uint256","indexed":true,"internalType":"uint256"},{"name":"buyerWins","type":"bool","indexed":false,"internalType":"bool"}],"anonymous":false},{"type":"event","name":"ReviewDisputed","inputs":[{"name":"orderId","type":"uint256","indexed":true,"internalType":"uint256"}],"anonymous":false},{"type":"event","name":"ServiceCreated","inputs":[{"name":"serviceId","type":"uint256","indexed":true,"internalType":"uint256"},{"name":"agentId","type":"uint256","indexed":true,"internalType":"uint256"}],"anonymous":false},{"type":"event","name":"ServiceDeleted","inputs":[{"name":"serviceId","type":"uint256","indexed":true,"internalType":"uint256"},{"name":"agentId","type":"uint256","indexed":true,"internalType":"uint256"},{"name":"owner","type":"address","indexed":true,"internalType":"address"}],"anonymous":false},{"type":"event","name":"VerifierChanged","inputs":[{"name":"previousVerifier","type":"address","indexed":true,"internalType":"address"},{"name":"newVerifier","type":"address","indexed":true,"internalType":"address"}],"anonymous":false},{"type":"error","name":"OwnableInvalidOwner","inputs":[{"name":"owner","type":"address","internalType":"address"}]},{"type":"error","name":"OwnableUnauthorizedAccount","inputs":[{"name":"account","type":"address","internalType":"address"}]}],"bytecode":{"object":"0x60803460d857601f61436e38819003918201601f19168301916001600160401b0383118484101760dc5780849260209460405283398101031260d857516001600160a01b0381169081900360d857801560c5575f80546001600160a01b0319811683178255604051929182916001600160a01b0316907f8be0079c531659141344cd1fd0a4f28419497f9722a3daafe3b4186f6b6457e09080a3670de0b6b3a7640000600d55600e80546001600160a01b03191691909117905561427d90816100f18239f35b631e4fbdf760e01b5f525f60045260245ffd5b5f80fd5b634e487b7160e01b5f52604160045260245ffdfe60806040526004361015610011575f80fd5b5f3560e01c8063051fc2e6146131f857806305309849146131cd5780630a468dc3146104155780630e540b3a14612fea5780631ab6f88814612f4857806322f0a29714612eff578063242d22bb14612add57806326232a2e14612abd5780632b7ac3f314612a955780633ae12bd1146129075780633cdcfd451461200d5780633d7908e014611f2d57806350c8713e14611d455780635437988d14611c9b578063549dec5214611b4f578063555d9bdd14611a0d5780635ad9bc13146115775780635de3709614611497578063664d20951461136457806367c7ba39146113475780636c1c50aa1461128c578063715018a61461123557806374e29ee61461110457806379b358d8146110e75780637defdd73146110ca578063844ce562146110ad5780638da5cb5b146110865780638f1ec88f14610fb457806390f06a6914610aee578063b43bd94d14610ab6578063b789bf5214610a99578063c4bbdef414610a6f578063d42805ab14610437578063e85605181461041a578063f27f5a2d14610415578063f2fde38b14610390578063f51cf02f146101f25763f97e46f3146101bb575f80fd5b346101ee5760203660031901126101ee576004355f52600c6020526040805f206001815491015482519182526020820152f35b5f80fd5b346101ee57610200366132f0565b825f93929352600a602052600160405f2001545f526005602052600960405f2001545f52600460205261024360018060a01b03600560405f2001541633146135ba565b815f52600a60205260405f2090600782019160ff83541690600c82101561037c576102726003600493146135f2565b01906001600160401b038111610368576102968161029084546134be565b846138ba565b5f601f82116001146103055781906102c6939495965f926102fa575b50508160011b915f199060031b1c19161790565b90555b805460ff191660041790557fe21fe02c1589242b30be2057f54fd54b7ddc463695d19ffdb54f9ebb0584f24a5f80a2005b0135905086806102b2565b601f19821695835f5260205f20915f5b88811061035057508360019596979810610337575b505050811b0190556102c9565b01355f19600384901b60f8161c1916905585808061032a565b90926020600181928686013581550194019101610315565b634e487b7160e01b5f52604160045260245ffd5b634e487b7160e01b5f52602160045260245ffd5b346101ee5760203660031901126101ee576103a9613323565b6103b16140ff565b6001600160a01b03168015610402575f80546001600160a01b03198116831782556001600160a01b0316907f8be0079c531659141344cd1fd0a4f28419497f9722a3daafe3b4186f6b6457e09080a3005b631e4fbdf760e01b5f525f60045260245ffd5b6132a2565b346101ee575f3660031901126101ee576020600854604051908152f35b346101ee5760c03660031901126101ee576004356024356001600160401b0381116101ee5761046a9036906004016132c3565b91906044356001600160401b0381116101ee5761048b9036906004016132c3565b93906064356001600160401b0381116101ee576104ac9036906004016132c3565b9190956084356001600160401b0381116101ee576104ce9036906004016132c3565b9260a43598885f5260046020526104f560018060a01b03600560405f2001541633146140a7565b8615610a2a5783156109ef5785156109aa5784156109655789156109205761054261055192610560956105396002549b6040519b6105328d613339565b3691613f25565b8a523691613f25565b95602088019687523691613f25565b92604086019384523691613f25565b95606084019687526080840190815260a084015f815260c08501905f825260e08601925f84526101008701945f86526101208801968a8852895f52600560205260405f2098518051906001600160401b038211610368576105cb826105c58d546134be565b8d6138ba565b602090601f83116001146108bd576105f992915f918361084f5750508160011b915f199060031b1c19161790565b89555b51805160018a01916001600160401b038211610368576106268261062085546134be565b856138ba565b602090601f831160011461085a5761065492915f918361084f5750508160011b915f199060031b1c19161790565b90555b51805160028901916001600160401b0382116103685761067b8261062085546134be565b602090601f83116001146107ec576106a992915f91836107755750508160011b915f199060031b1c19161790565b90555b600387019951998a516001600160401b038111610368576106d18161029084546134be565b6020601f82116001146107805790806107049260099b9c9d9e5f926107755750508160011b915f199060031b1c19161790565b90555b516004880155516005870155516006860155516007850155516008840155519101556107346002546137f9565b600255815f52600660205260405f2061074d81546137f9565b90557fdc8855cc7f7586dba341932f48cd1f77cb47b39fcede4c116b60f0d77c5312c35f80a3005b015190508e806102b2565b601f1982169c835f52815f209d5f5b8181106107cf57509160099b9c9d9e918460019594106107b7575b505050811b019055610707565b01515f1960f88460031b161c191690558d80806107aa565b919e8f60016020928684930151815501940192019e91929e61078f565b90601f19831691845f52815f20925f5b818110610837575090846001959493921061081f575b505050811b0190556106ac565b01515f1960f88460031b161c191690558d8080610812565b929360206001819287860151815501950193016107fc565b015190508f806102b2565b90601f19831691845f52815f20925f5b8181106108a5575090846001959493921061088d575b505050811b019055610657565b01515f1960f88460031b161c191690558e8080610880565b9293602060018192878601518155019501930161086a565b90601f198316918c5f52815f20925f5b81811061090857509084600195949392106108f0575b505050811b0189556105fc565b01515f1960f88460031b161c191690558e80806108e3565b929360206001819287860151815501950193016108cd565b60405162461bcd60e51b815260206004820152601f60248201527f5072696365206d7573742062652067726561746572207468616e207a65726f006044820152606490fd5b60405162461bcd60e51b815260206004820152601960248201527f4f757470757420737065637320555249207265717569726564000000000000006044820152606490fd5b60405162461bcd60e51b815260206004820152601860248201527f496e7075742073706563732055524920726571756972656400000000000000006044820152606490fd5b60405162461bcd60e51b815260206004820152601360248201527213dd5d1c1d5d08155492481c995c5d5a5c9959606a1b6044820152606490fd5b60405162461bcd60e51b815260206004820152601b60248201527f4465736372697074696f6e2063616e6e6f7420626520656d70747900000000006044820152606490fd5b346101ee5760203660031901126101ee576004355f52600b602052602060405f2054604051908152f35b346101ee575f3660031901126101ee576020600754604051908152f35b346101ee5760203660031901126101ee576001600160a01b03610ad7613323565b165f526003602052602060405f2054604051908152f35b346101ee5760603660031901126101ee57600435610b0a61325a565b6044356001600160401b0381116101ee57610b2990369060040161341b565b610b3e60018060a01b03600e54163314614033565b825f52600a60205260405f2090600782019060ff825416600c81101561037c57600a610b6a911461406e565b6040810190815151906008850192610b94845493845f52600b602052600360405f200154146138fd565b610bb56060830193845151905f52600b602052600460405f200154146138fd565b6009545f52600c602052602060405f209280518455015160018301556002820190518051906001600160401b03821161036857600160401b8211610368576020908354838555808410610f64575b5001915f5260205f208160051c915f5b838110610f255750601f198116900380610eda575b5050505060030190518051906001600160401b03821161036857600160401b8211610368576020908354838555808410610e89575b5001915f5260205f208160051c915f5b838110610e4a5750601f198116900380610e00575b50505050610c916009546137f9565b600955545f52600b60205260ff610cc360405f2060098501545f52600c602052610cbd60405f20613eea565b9061415a565b1690600183019182545f526005602052610cf5600860405f2060078101610cea81546137f9565b905501918254613645565b9055805460ff1916600b1790558215610d9b57506002810154600690910154662386f26fc100008101916001600160a01b0316908210610d87575f8080938193828215610d7e575bf115610d735760207f17634f4c6394dec88693517bd6d17dc8b2beee6812864840ddd5fe2dfa1bff7a915b6040519015158152a2005b6040513d5f823e3d90fd5b506108fc610d3d565b634e487b7160e01b5f52601160045260245ffd5b9050545f526005602052600960405f2001545f5260046020525f808080662386f26fc1000060018060a01b0360056040842001541682f115610d735760207f17634f4c6394dec88693517bd6d17dc8b2beee6812864840ddd5fe2dfa1bff7a91610d68565b925f935f5b818110610e1a57505050015585808080610c82565b9091946020610e406001928460ff8a5116919060ff809160031b9316831b921b19161790565b9601929101610e05565b5f5f5b60208110610e62575083820155600101610c6d565b865190969160019160209160ff60038b901b81811b199092169216901b1792019601610e4d565b610eb390855f52835f20601f80870160051c82019281881680610eb9575b500160051c01906138a4565b89610c5d565b610ed4905f198601908154905f199060200360031b1c169055565b8e610ea7565b925f935f5b818110610ef55750505001556003888080610c28565b9091946020610f1b6001928460ff8a5116919060ff809160031b9316831b921b19161790565b9601929101610edf565b5f5f5b60208110610f3d575083820155600101610c13565b865190969160019160209160ff60038b901b81811b199092169216901b1792019601610f28565b610f8d90855f52835f20601f80870160051c82019281881680610f9357500160051c01906138a4565b8b610c03565b610fae905f198601908154905f199060200360031b1c169055565b5f610ea7565b346101ee5760203660031901126101ee576004355f52600a60205260405f2080549060018101549060018060a01b0360028201541691610ff6600383016134f6565b91611003600482016134f6565b9261105b60058301549461104d60068501549360ff6007870154169860096008880154970154976040519b8c5260208c015260408b015261014060608b01526101408a0190613596565b9088820360808a0152613596565b9360a087015260c0860152600c84101561037c57849360e08501526101008401526101208301520390f35b346101ee575f3660031901126101ee575f546040516001600160a01b039091168152602090f35b346101ee575f3660031901126101ee576020600954604051908152f35b346101ee575f3660031901126101ee576020600254604051908152f35b346101ee575f3660031901126101ee576020600d54604051908152f35b346101ee5760203660031901126101ee57600435805f526005602052600960405f2001545f52600460205260018060a01b03600560405f2001541633036111f057805f526005602052600960405f200154805f52600460205260018060a01b03600560405f2001541691805f5260056020525f60096040822061118681613fe5565b61119260018201613fe5565b61119e60028201613fe5565b6111aa60038201613fe5565b82600482015582600582015582600682015582600782015582600882015501557f4dd311b70294bb5c33d33392b9e0815ed463cae5354e2a830a4739255f853c635f80a4005b60405162461bcd60e51b815260206004820152601c60248201527f4e6f7420746865206f776e6572206f66207468652073657276696365000000006044820152606490fd5b346101ee575f3660031901126101ee5761124d6140ff565b5f80546001600160a01b0319811682556001600160a01b03167f8be0079c531659141344cd1fd0a4f28419497f9722a3daafe3b4186f6b6457e08280a3005b346101ee5760203660031901126101ee576004355f52600460205260405f2080546112b9600183016134f6565b9161133d6112c9600283016134f6565b9161132f6112d9600383016134f6565b6113216112e8600485016134f6565b93600560018060a01b039101541695611313604051998a998a5260c060208b015260c08a0190613596565b9088820360408a0152613596565b908682036060880152613596565b908482036080860152613596565b9060a08301520390f35b346101ee575f3660031901126101ee576020600154604051908152f35b346101ee5760203660031901126101ee57600435805f52600460205261139a60018060a01b03600560405f2001541633146140a7565b6113a381613807565b5161143a575f8181526004602052604081206005818101548383556001600160a01b03169392916113d660018201613fe5565b6113e260028201613fe5565b6113ee60038201613fe5565b6113fa60048201613fe5565b0155335f52600360205260405f2061141281546140f3565b90557f601dab053a8be928732dddaec94d288df156e9a8b1c50447b7f9b4ce718868725f80a3005b60405162461bcd60e51b815260206004820152602f60248201527f54686973206167656e7420686173207374696c6c20736f6d652073657276696360448201526e65732c2064656c657465207468656d60881b6064820152608490fd5b346101ee5760403660031901126101ee576114b0613323565b60243590815f5260046020526114d660018060a01b03600560405f2001541633146140a7565b815f52600460205260018060a01b03600560405f2001541690335f52600360205260405f2061150581546140f3565b90555f83815260046020908152604080832060050180546001600160a01b0319166001600160a01b0395909516948517905583835260039091529020805491939161154f906137f9565b90557fd6ba5fac6fb963adac1793479c359f94fa1284132187bb1bd9302880a18a8fc35f80a4005b346101ee5760803660031901126101ee576004356001600160401b0381116101ee576115a79036906004016132c3565b6024356001600160401b0381116101ee576115c69036906004016132c3565b90926044356001600160401b0381116101ee576115e79036906004016132c3565b9190946064356001600160401b0381116101ee576116099036906004016132c3565b9260015497611617896137f9565b6001556040519760c08901948986106001600160401b038711176103685761165161166f946116609361167e986040528d8d523691613f25565b9860208b01998a523691613f25565b95604089019687523691613f25565b92606087019384523691613f25565b916080850192835260a0850193338552865f52600460205260405f20955186556001860190518051906001600160401b038211610368576116c38261062085546134be565b602090601f83116001146119aa576116f192915f918361199f5750508160011b915f199060031b1c19161790565b90555b51805160028601916001600160401b038211610368576117188261062085546134be565b602090601f831160011461193c5761174692915f91836119315750508160011b915f199060031b1c19161790565b90555b51805160038501916001600160401b0382116103685761176d8261062085546134be565b602090601f83116001146118ce5761179b92915f918361185c5750508160011b915f199060031b1c19161790565b90555b51805160048401916001600160401b038211610368576117c28261062085546134be565b602090601f83116001146118675791806117f59260059695945f9261185c5750508160011b915f199060031b1c19161790565b90555b51910180546001600160a01b0319166001600160a01b0392909216919091179055335f9081526003602052604090208054611832906137f9565b905533907fa70099852e9c3325724165514adc9d6f8dd55c4708c923dbf3219c4fc6f8aefc5f80a3005b0151905088806102b2565b90601f19831691845f52815f20925f5b8181106118b657509160019391856005989796941061189e575b505050811b0190556117f8565b01515f1960f88460031b161c19169055878080611891565b92936020600181928786015181550195019301611877565b90601f19831691845f52815f20925f5b8181106119195750908460019594939210611901575b505050811b01905561179e565b01515f1960f88460031b161c191690558780806118f4565b929360206001819287860151815501950193016118de565b0151905089806102b2565b90601f19831691845f52815f20925f5b818110611987575090846001959493921061196f575b505050811b019055611749565b01515f1960f88460031b161c19169055888080611962565b9293602060018192878601518155019501930161194c565b015190508a806102b2565b90601f19831691845f52815f20925f5b8181106119f557509084600195949392106119dd575b505050811b0190556116f4565b01515f1960f88460031b161c191690558980806119d0565b929360206001819287860151815501950193016119ba565b346101ee5760403660031901126101ee57600435611a2961325a565b611a3e60018060a01b03600e54163314614033565b815f52600a60205260405f20916007830160ff81541690600c82101561037c57611a6d6008611a7b931461406e565b8315611b475760059061362d565b7ffe09a41fc9b9dc5d562b4039ba785a9606e995513e371cc8c4d3f7ba68a21d5060206040518415158152a215611b0c5760018101545f526005602052600960405f2001545f526004602052600560018060a01b038160405f2001541691015490662386f26fc100008201809211610d87575f8080938193828215611b03575bf115610d7357005b506108fc611afb565b6002810154600590910154662386f26fc100008101916001600160a01b0316908210610d87575f8080938193828215611b0357f115610d7357005b60069061362d565b346101ee5760403660031901126101ee57600435611b6b61325a565b815f52600a602052611b8d60018060a01b03600260405f20015416331461386c565b815f52600a60205260405f20916007830160ff81541690600c82101561037c57611bbc6004611bca93146135f2565b8315611c935760059061362d565b7f73cc213870fd2398fad7ca13fc85db9c1059e4a6554e1c7c3e5bc1ceae4d7f6360206040518415158152a2611bfc57005b60018101545f526005602052600960405f2001545f52600460205260018060a01b03600560405f20015416600582015490662386f26fc10000820191828111610d875766232bff5f46c00001918211610d87575f8080938193828215611c8a575bf115610d7357600201545f90819081908190662386f26fc10000906001600160a01b031682f115610d7357005b506108fc611c5d565b60079061362d565b346101ee5760203660031901126101ee57611cb4613323565b611cbc6140ff565b6001600160a01b03168015611d0e57600e80546001600160a01b0319811683179091556001600160a01b03167f0ddda8be1021ab00f63727c5c5504ad96b163269770a3fe8ac3dd0bcb40208df5f80a3005b60405162461bcd60e51b815260206004820152600f60248201526e496e76616c6964206164647265737360881b6044820152606490fd5b346101ee5760403660031901126101ee57600435611d6161325a565b815f52600a602052600160405f2001545f526005602052600960405f2001545f526004602052611da160018060a01b03600560405f2001541633146135ba565b815f52600a60205260405f20600781019160ff835416600c81101561037c57600903611ee85715611dff5750805460ff1916600a1790555b7f7625f404f7c150f9b9bd16e4c3388c02ec2ed070a6d6cc7a035a746f9809ae4f5f80a2005b60088101545f52600b60205260ff611e2c60405f2060098401545f52600c602052610cbd60405f20613eea565b1691600182019283545f526005602052611e53600860405f2060078101610cea81546137f9565b9055805460ff1916600b179055600281015460069190910154662386f26fc100008101916001600160a01b0316908210610d87575f8080938193828215611edf575bf115610d7357545f526005602052600960405f2001545f5260046020525f808080662386f26fc1000060018060a01b0360056040842001541682f1611dd9576040513d5f823e3d90fd5b506108fc611e95565b60405162461bcd60e51b815260206004820152601e60248201527f43616e6e6f7420636861636b2074686973206f726465722072657669657700006044820152606490fd5b346101ee5760203660031901126101ee576004355f52600560205260405f20610140611f58826134f6565b91611f65600182016134f6565b611f71600283016134f6565b91611f7e600382016134f6565b926004820154936005830154611fe8600685015492611fda600787015495611fcc600960088a015499015499611fbe6040519e8f9e8f8181520190613596565b8d810360208f015290613596565b908b820360408d0152613596565b9089820360608b0152613596565b95608088015260a087015260c086015260e08501526101008401526101208301520390f35b346101ee5760a03660031901126101ee576004356024356001600160401b0381116101ee5761204090369060040161348e565b6044356001600160401b0381116101ee5761205f90369060040161348e565b90916064356001600160401b0381116101ee5761208090369060040161348e565b6084939193356001600160401b0381116101ee576120a290369060040161348e565b929095885f526005602052600460405f2001968754156128ce576120c78487146138fd565b6120d28584146138fd565b60075498600854976040519760a08901948986106001600160401b038711176103685761211161212f946121209361213e986040528d8d523691613f6a565b9660208b019788523691613f6a565b956040890196875236916133a8565b946060870195865236916133a8565b94608085019586525f52600b60205260405f2093518455600184019051805190600160401b82116103685782548284558083106128a1575b50602001915f5260205f20915f905b8282106127d25750505050600283019051805190600160401b82116103685782548284558083106127a5575b50602001915f5260205f20915f905b8282106126c557505050506003820190518051906001600160401b03821161036857600160401b8211610368576020908354838555808410612696575b5001915f5260205f208160051c915f5b8381106126575750601f19811690038061260c575b5050505060040190518051906001600160401b03821161036857600160401b82116103685760209083548385558084106125bc575b5001915f5260205f208160051c915f5b83811061257d5750601f198116900380612533575b5050505061228b6008546137f9565b908160085561229b6007546137f9565b6007555490600d54604051926122b084613339565b848452602084019186835260408501913383526020604051906122d38183613370565b5f825260608801918252604051916122eb8284613370565b5f80845260808a0193845260a08a0194855260c08a0195865260e08a018181526101008b01998a526101208b018281528c8352600a855260409092209a518b55975160018b0155955160028a0180546001600160a01b0319166001600160a01b039290921691909117905551805195969560038a01916001600160401b0382116103685761237d8261062085546134be565b8390601f83116001146124d0576123aa92915f91836107755750508160011b915f199060031b1c19161790565b90555b9051805160048901926001600160401b038211610368576123d8826123d286546134be565b866138ba565b80601f831160011461246b57508190612405935f926124605750508160011b915f199060031b1c19161790565b90555b5160058601555160068501555191600c83101561037c5761242e6009936007860161362d565b5160088401555191015533907f84d6335421df57723ef1e70d068eb8ae2be99f6fa96d611c689944f283fe4baa5f80a4005b015190508c806102b2565b9192601f198416855f52835f20935f905b8282106124b85750509084600195949392106124a0575b505050811b019055612408565b01515f1960f88460031b161c191690558b8080612493565b8060018697829497870151815501960194019061247c565b90601f19831691845f52855f20925f5b8782821061251d575050908460019594939210612505575b505050811b0190556123ad565b01515f1960f88460031b161c191690558d80806124f8565b60018596829396860151815501950193016124e0565b925f935f5b81811061254d5750505001558380808061227c565b90919460206125736001928460ff8a5116919060ff809160031b9316831b921b19161790565b9601929101612538565b5f5f5b60208110612595575083820155600101612267565b865190969160019160209160ff60038b901b81811b199092169216901b1792019601612580565b6125e590855f52835f20601f80870160051c820192818816806125eb57500160051c01906138a4565b87612257565b612606905f198601908154905f199060200360031b1c169055565b8c610ea7565b925f935f5b8181106126275750505001556004868080612222565b909194602061264d6001928460ff8a5116919060ff809160031b9316831b921b19161790565b9601929101612611565b5f5f5b6020811061266f57508382015560010161220d565b865190969160019160209160ff60038b901b81811b199092169216901b179201960161265a565b6126bf90855f52835f20601f80870160051c82019281881680610eb957500160051c01906138a4565b896121fd565b80518051906001600160401b038211610368576126ec826126e688546134be565b886138ba565b602090601f831160011461273c5792612722836001959460209487965f926127315750508160011b915f199060031b1c19161790565b87555b019401910190926121c0565b015190505f806102b2565b90601f19831691875f52815f20925f5b81811061278d5750936020936001969387969383889510612775575b505050811b018755612725565b01515f1960f88460031b161c191690558f8080612768565b9293602060018192878601518155019501930161274c565b835f528260205f2091820191015b8181106127c057506121b1565b806127cc600192613fe5565b016127b3565b80518051906001600160401b038211610368576127f3826126e688546134be565b602090601f83116001146128385792612829836001959460209487965f926127315750508160011b915f199060031b1c19161790565b87555b01940191019092612185565b90601f19831691875f52815f20925f5b8181106128895750936020936001969387969383889510612871575b505050811b01875561282c565b01515f1960f88460031b161c191690555f8080612864565b92936020600181928786015181550195019301612848565b835f528260205f2091820191015b8181106128bc5750612176565b806128c8600192613fe5565b016128af565b60405162461bcd60e51b815260206004820152601160248201527014d95c9d9a58d9481b9bdd08199bdd5b99607a1b6044820152606490fd5b346101ee5760403660031901126101ee5760043561292361325a565b815f52600a602052600160405f2001545f526005602052600960405f2001545f52600460205261296360018060a01b03600560405f2001541633146135ba565b815f52600a60205260405f20600781019160ff835416600c81101561037c57600703612a3e57156129c15750805460ff191660081790555b7ff4c368bd347e60f5f91ec4e734bd8b1b1745ddd8c0beaceb97a24634ab6bc8655f80a2005b815460ff191660061790915560028101546005820154662386f26fc100008101926001600160a01b03929092169190838111610d875766470de4df82000001809311610d87575f809392612a1c829460068495015490613645565b90828215612a35575bf161299b576040513d5f823e3d90fd5b506108fc612a25565b60405162461bcd60e51b815260206004820152602960248201527f43616e6e6f7420636f6e6669726d206f7220646973707574652077697468207460448201526868697320737461746560b81b6064820152608490fd5b346101ee575f3660031901126101ee57600e546040516001600160a01b039091168152602090f35b346101ee575f3660031901126101ee576020604051655af3107a40008152f35b346101ee5760403660031901126101ee576004356024356001600160401b0381116101ee57612b1090369060040161341b565b815f52600a602052612b3260018060a01b03600260405f20015416331461386c565b815f52600a60205260405f20906007820160ff815416600c81101561037c57600503612eba576040820191825151906008850193612b82855493845f52600b602052600360405f200154146138fd565b612ba36060830193845151905f52600b602052600460405f200154146138fd565b6009545f52600c602052602060405f209280518455015160018301556002820190518051906001600160401b03821161036857600160401b8211610368576020908354838555808410612e6a575b5001915f5260205f208160051c915f5b838110612e2b5750601f198116900380612de0575b5050505060030190518051906001600160401b03821161036857600160401b8211610368576020908354838555808410612d90575b5001915f5260205f208160051c915f5b838110612d515750601f198116900380612ce5575b877f0909db769d72b3f96fff03f53d78b70b8de4ee5dbc56c7540b49acb56f1e28776020612cd98a8a8a612cac600980549401938085556137f9565b600955600960ff19825416179055545f52600b835260405f2090545f52600c8352610cbd60405f20613eea565b60ff60405191168152a2005b925f935f5b818110612d215750505001558282612cd97f0909db769d72b3f96fff03f53d78b70b8de4ee5dbc56c7540b49acb56f1e2877612c70565b9091946020612d476001928460ff8a5116919060ff809160031b9316831b921b19161790565b9601929101612cea565b5f5f5b60208110612d69575083820155600101612c5b565b865190969160019160209160ff60038b901b81811b199092169216901b1792019601612d54565b612db990855f52835f20601f80870160051c82019281881680612dbf57500160051c01906138a4565b88612c4b565b612dda905f198601908154905f199060200360031b1c169055565b8d610ea7565b925f935f5b818110612dfb5750505001556003878080612c16565b9091946020612e216001928460ff8a5116919060ff809160031b9316831b921b19161790565b9601929101612de5565b5f5f5b60208110612e43575083820155600101612c01565b865190969160019160209160ff60038b901b81811b199092169216901b1792019601612e2e565b612e9390855f52835f20601f80870160051c82019281881680612e9957500160051c01906138a4565b8a612bf1565b612eb4905f198601908154905f199060200360031b1c169055565b8f610ea7565b60405162461bcd60e51b815260206004820152601a60248201527f43616e6e6f74206576616c756174652074686973206f726465720000000000006044820152606490fd5b346101ee5760203660031901126101ee57600435612f1b6140ff565b600d5481600d557fa24b762cd395243f5f3ed4e4c7b00bf8a9d6d3956ea164555bc63a1f5b2cfb145f80a3005b346101ee5760203660031901126101ee576001600160a01b03612f69613323565b16805f526003602052612f7f60405f205461379f565b905f5f91600154925b838110612fa15760405180612f9d8782613269565b0390f35b5f818152600460205260409020600501546001600160a01b03168214612fca575b600101612f88565b91612fe28184612fdc600194896137d1565b526137f9565b929050612fc2565b612ff3366132f0565b825f93929352600a60205261301860018060a01b03600260405f20015416331461386c565b815f52600a60205260405f2090600782019160ff835416600c81101561037c57600103613199576130526005820154600683015490613645565b662386f26fc10000810190818111610d875766470de4df82000001809111610d8757340361316057600301906001600160401b0381116103685761309a8161029084546134be565b5f601f82116001146130fd5781906130c9939495965f926102fa5750508160011b915f199060031b1c19161790565b90555b805460ff191660031790557f7e82078c35b6665b9d320ebeaa6c266960fad5b802c5558cf7df60c4769af95b5f80a2005b601f19821695835f5260205f20915f5b8881106131485750836001959697981061312f575b505050811b0190556130cc565b01355f19600384901b60f8161c19169055858080613122565b9092602060018192868601358155019401910161310d565b60405162461bcd60e51b8152602060048201526011602482015270125b98dbdc9c9958dd081c185e5b595b9d607a1b6044820152606490fd5b60405162461bcd60e51b815260206004820152600c60248201526b139bdd081858d8d95c1d195960a21b6044820152606490fd5b346101ee5760203660031901126101ee57612f9d6131ec600435613807565b60405191829182613269565b60403660031901126101ee5761325860043561321261325a565b90805f52600a602052600160405f2001545f526005602052600960405f2001545f52600460205261325360018060a01b03600560405f2001541633146135ba565b613652565b005b6024359081151582036101ee57565b60206040818301928281528451809452019201905f5b81811061328c5750505090565b825184526020938401939092019160010161327f565b346101ee575f3660031901126101ee576020604051662386f26fc100008152f35b9181601f840112156101ee578235916001600160401b0383116101ee57602083818601950101116101ee57565b9060406003198301126101ee5760043591602435906001600160401b0382116101ee5761331f916004016132c3565b9091565b600435906001600160a01b03821682036101ee57565b61014081019081106001600160401b0382111761036857604052565b608081019081106001600160401b0382111761036857604052565b90601f801991011681019081106001600160401b0382111761036857604052565b6001600160401b0381116103685760051b60200190565b92916133b382613391565b936133c16040519586613370565b602085848152019260051b81019182116101ee57915b8183106133e357505050565b823560ff811681036101ee578152602092830192016133d7565b9080601f830112156101ee57816020613418933591016133a8565b90565b91906080838203126101ee576040519061343482613355565b8193803583526020810135602084015260408101356001600160401b0381116101ee57826134639183016133fd565b60408401526060810135916001600160401b0383116101ee5760609261348992016133fd565b910152565b9181601f840112156101ee578235916001600160401b0383116101ee576020808501948460051b0101116101ee57565b90600182811c921680156134ec575b60208310146134d857565b634e487b7160e01b5f52602260045260245ffd5b91607f16916134cd565b9060405191825f825492613509846134be565b80845293600181169081156135745750600114613530575b5061352e92500383613370565b565b90505f9291925260205f20905f915b81831061355857505090602061352e928201015f613521565b602091935080600191548385890101520191019091849261353f565b90506020925061352e94915060ff191682840152151560051b8201015f613521565b805180835260209291819084018484015e5f828201840152601f01601f1916010190565b156135c157565b60405162461bcd60e51b8152602060048201526009602482015268139bdd081859d95b9d60ba1b6044820152606490fd5b156135f957565b60405162461bcd60e51b815260206004820152600c60248201526b57726f6e672073746174757360a01b6044820152606490fd5b90600c81101561037c5760ff80198354169116179055565b91908201809211610d8757565b90815f52600a60205260405f20600781019160ff835416600c81101561037c5761367c90156135f2565b1561373d575066470de4df82000034036136c157805460ff191660011790557fe523fa74808de1ee2f263261194e97d07beca2ad91049c31e3caec313211eda15f80a2565b60405162461bcd60e51b815260206004820152604860248201527f596f75206d75737420636f6d6d697420746f20636f766572206469737075746560448201527f20657870656e73657320696e2063617365206f662028796f75722920626164206064820152673132b430bb34b7b960c11b608482015260a490fd5b5f808093928193600260ff19825416179055600660018060a01b0360028301541691015490828215613796575bf115610d73577ffba63a845e7ea0032cb6faff0fd73fcd3761bdf781253cc79080b64077f259765f80a2565b506108fc61376a565b906137a982613391565b6137b66040519182613370565b82815280926137c7601f1991613391565b0190602036910137565b80518210156137e55760209160051b010190565b634e487b7160e01b5f52603260045260245ffd5b5f198114610d875760010190565b805f52600660205261381c60405f205461379f565b905f5f91600254925b838110613833575050505090565b805f52600560205281600960405f20015414613852575b600101613825565b916138648184612fdc600194896137d1565b92905061384a565b1561387357565b60405162461bcd60e51b81526020600482015260096024820152682737ba10313abcb2b960b91b6044820152606490fd5b8181106138af575050565b5f81556001016138a4565b9190601f81116138c957505050565b61352e925f5260205f20906020601f840160051c830193106138f3575b601f0160051c01906138a4565b90915081906138e6565b1561390457565b60405162461bcd60e51b815260206004820152601260248201527153616d65206c656e67746820706c6561736560701b6044820152606490fd5b90604051918281549182825260208201905f5260205f20925f905b80601f830110613d425761352e945491818110613d2e575b818110613d17575b818110613d00575b818110613ce9575b818110613cd3575b818110613cbc575b818110613ca5575b818110613c8e575b818110613c77575b818110613c60575b818110613c49575b818110613c32575b818110613c1b575b818110613c04575b818110613bed575b818110613bd6575b818110613bbf575b818110613ba8575b818110613b91575b818110613b7a575b818110613b63575b818110613b4c575b818110613b35575b818110613b1e575b818110613b07575b818110613af0575b818110613ad9575b818110613ac2575b818110613aab575b818110613a94575b818110613a7d575b10613a6f575b500383613370565b60f81c81526020015f613a67565b92602060019160ff8560f01c168152019301613a61565b92602060019160ff8560e81c168152019301613a59565b92602060019160ff8560e01c168152019301613a51565b92602060019160ff8560d81c168152019301613a49565b92602060019160ff8560d01c168152019301613a41565b92602060019160ff8560c81c168152019301613a39565b92602060019160ff8560c01c168152019301613a31565b92602060019160ff8560b81c168152019301613a29565b92602060019160ff8560b01c168152019301613a21565b92602060019160ff8560a81c168152019301613a19565b92602060019160ff8560a01c168152019301613a11565b92602060019160ff8560981c168152019301613a09565b92602060019160ff8560901c168152019301613a01565b92602060019160ff8560881c1681520193016139f9565b92602060019160ff8560801c1681520193016139f1565b92602060019160ff8560781c1681520193016139e9565b92602060019160ff8560701c1681520193016139e1565b92602060019160ff8560681c1681520193016139d9565b92602060019160ff8560601c1681520193016139d1565b92602060019160ff8560581c1681520193016139c9565b92602060019160ff8560501c1681520193016139c1565b92602060019160ff8560481c1681520193016139b9565b92602060019160ff8560401c1681520193016139b1565b92602060019160ff8560381c1681520193016139a9565b92602060019160ff8560301c1681520193016139a1565b92602060019160ff8560281c168152019301613999565b92602060019160ff85831c168152019301613991565b92602060019160ff8560181c168152019301613989565b92602060019160ff8560101c168152019301613981565b92602060019160ff8560081c168152019301613979565b92602060019160ff85168152019301613971565b916020919350610400600191865460ff8116825260ff8160081c168583015260ff8160101c16604083015260ff8160181c16606083015260ff81861c16608083015260ff8160281c1660a083015260ff8160301c1660c083015260ff8160381c1660e083015260ff8160401c1661010083015260ff8160481c1661012083015260ff8160501c1661014083015260ff8160581c1661016083015260ff8160601c1661018083015260ff8160681c166101a083015260ff8160701c166101c083015260ff8160781c166101e083015260ff8160801c1661020083015260ff8160881c1661022083015260ff8160901c1661024083015260ff8160981c1661026083015260ff8160a01c1661028083015260ff8160a81c166102a083015260ff8160b01c166102c083015260ff8160b81c166102e083015260ff8160c01c1661030083015260ff8160c81c1661032083015260ff8160d01c1661034083015260ff8160d81c1661036083015260ff8160e01c1661038083015260ff8160e81c166103a083015260ff8160f01c166103c083015260f81c6103e0820152019401920185929391613959565b90604051613ef781613355565b6060613489600383958054855260018101546020860152613f1a6002820161393e565b60408601520161393e565b9291926001600160401b0382116103685760405191613f4e601f8201601f191660200184613370565b8294818452818301116101ee578281602093845f960137010152565b929192613f7682613391565b93613f846040519586613370565b602085848152019260051b8201918183116101ee5780935b838510613faa575050505050565b84356001600160401b0381116101ee57820183601f820112156101ee57602091613fda8583858095359101613f25565b815201940193613f9c565b613fef81546134be565b9081613ff9575050565b81601f5f931160011461400a575055565b8183526020832061402691601f0160051c8101906001016138a4565b8082528160208120915555565b1561403a57565b60405162461bcd60e51b815260206004820152600c60248201526b2737ba103b32b934b334b2b960a11b6044820152606490fd5b1561407557565b60405162461bcd60e51b815260206004820152600a6024820152694e6f206469737075746560b01b6044820152606490fd5b156140ae57565b60405162461bcd60e51b815260206004820152601a60248201527f4e6f7420746865206f776e6572206f6620746865206167656e740000000000006044820152606490fd5b8015610d87575f190190565b5f546001600160a01b0316330361411257565b63118cdaa760e01b5f523360045260245ffd5b91909180548310156137e5575f52601f60205f208360051c01921690565b9060ff8091169116029060ff8216918203610d8757565b915f919082805b600386019182548610156141d05760019160ff6141c1816141a28a61419c6141c8978461418e848d614125565b90549060031b1c1690613645565b98614125565b90549060031b1c16826141b98b60408c01516137d1565b511690614143565b1690613645565b940193614161565b5f955091505b6004860191825486101561422c5761422260049260ff6141c18161420b8b6142056001988461418e848e614125565b99614125565b90549060031b1c16826141b98c60608d01516137d1565b95019490506141d6565b9350935050925080156142415760ff91041690565b50505f9056fea26469706673582212203214e9b7fad001d5f2651cc6efe2728b5e79b107a194cff6a10836021e1c45fd64736f6c634300081e0033","linkReferences":{}},"methodIdentifiers":{"agentCounter()":"67c7ba39","checkOrderEvaluation(uint256,bool)":"3ae12bd1","checkReview(uint256,bool)":"50c8713e","createAgent(string,string,string,string)":"5ad9bc13","createOrder(uint256,string)":"0e540b3a","createService(uint256,string,string,string,string,uint256)":"d42805ab","deleteAgent(uint256)":"664d2095","deleteService(uint256)":"74e29ee6","deliverOrder(uint256,string)":"f51cf02f","disputeOrderEvaluationFee()":"0a468dc3","disputeReviewFee()":"f27f5a2d","evaluateOrder(uint256,bool)":"549dec52","evaluateOrderRequest(uint256,bool)":"051fc2e6","getAgentServices(uint256)":"05309849","getAgentsByOwner(address)":"1ab6f888","idToAgent(uint256)":"6c1c50aa","idToOrder(uint256)":"8f1ec88f","idToReview(uint256)":"f97e46f3","idToReviewParams(uint256)":"c4bbdef4","idToService(uint256)":"3d7908e0","orderCounter()":"b789bf52","owner()":"8da5cb5b","ownerAgentCounter(address)":"b43bd94d","platformFee()":"26232a2e","renounceOwnership()":"715018a6","requestOrder(uint256,string[],string[],uint8[],uint8[])":"3cdcfd45","reviewDepositAmount()":"79b358d8","reviewOrder(uint256,(uint256,uint256,uint8[],uint8[]))":"242d22bb","reviewParamsCounter()":"e8560518","reviewsCounter()":"844ce562","serviceCounter()":"7defdd73","setReviewDeposit(uint256)":"22f0a297","setVerifier(address)":"5437988d","solveOrderEvaluationDispute(uint256,bool)":"555d9bdd","solveReviewDispute(uint256,bool,(uint256,uint256,uint8[],uint8[]))":"90f06a69","transferAgent(address,uint256)":"5de37096","transferOwnership(address)":"f2fde38b","verifier()":"2b7ac3f3"},"id":2}